S01C000044656275672F404040405448455F4C4142404040402E733139B3
S315200000000248854600F0AEFEFEE7C04600C001204D
S3152000001090B58DB000AF78607B681B68BB62BB6A09
S315200000200C337B62BB6A1B683B627B68DB68FB61C7
S31520000030FB691D4A934205DD7B680222DA607B68F4
S3152000004037221A617B681B69BB610023FB6221E0B2
S31520000050FB6A5B007A6AD3180C243A19100019003F
S3152000006002231A0000F0C6FE21007B181B781A0016
S31520000070FB699B187B617B185B781A00BB699B1810
S315200000803B613A697B691100180000F010FDFB6A9C
S315200000900133FB62FA6A3B6A9A42D9DBC046C04604
S315200000A0BD460DB090BDC04650C3000090B58DB082
S315200000B000AF78607B681B68BB62BB6A0C337B62CF
S315200000C0BB6A1B683B627B68DB68FB617B681B69DC
S315200000D0BB610023FB6221E0FB6A5B007A6AD318CE
S315200000E00C243A191000190002231A0000F082FE8F
S315200000F021007B181B781A00FB699B187B617B18F3
S315200001005B781A00BB699B183B613A697B691100D1
S31520000110180000F0D2FCFB6A0133FB62FA6A3B6AE4
S315200001209A42D9DBC046C046BD460DB090BD80B5CB
S3152000013086B000AF78607B681800FFF7B7FF7B6852
S315200001405B687B617B689B683B617B68DB68FB60E7
S315200001507B681B69BB607B685A68FB68D2187B6822
S31520000160DA607B689A68BB68D2187B681A617B68FC
S315200001701B69002B05DC7B6800229A607B680122C4
S315200001801A617B681B69372B05DD7B6800229A6024
S315200001907B6837221A617B681800FFF739FFC04653
S315200001A0BD4606B080BD80B586B000AFF860B960A8
S315200001B07A607B687B61FB68BA685A60FB687A68FC
S315200001C09A60C046BD4606B080BD80B586B000AFF9
S315200001D078607B681800FFF769FF7B68DB687B61C6
S315200001E07B681B693B617B685A687B69D2187B6890
S315200001F0DA607B689A683B69D2187B681A617B68EB
S315200002001B685B684122D31AFB607B68DB68002B86
S3152000021008DC184B1B780133DAB2164B1A70164BD2
S3152000022001221A707B68DB68782B08DD134B1B785C
S315200002300133DAB2114B1A700F4B01221A707B6808
S315200002401B69002B04DC7B689B685A427B689A609A
S315200002507B681B693C2B04DD7B689B685A427B6864
S315200002609A607B681800FFF7D3FEC046BD4606B0ED
S3152000027080BDC0460A0E0020100E00200B0E002066
S3152000028090B585B000AF0C243B19188008203B1888
S3152000029019803B1D1A8021007B181A783B1D1B787C
S315200002A09A4213D87B181A783B181B789A420DD39A
S315200002B07B185A783B1D5B789A4207D87B185A7868
S315200002C03B185B789A4201D3012300E000231800F3
S315200002D0BD4605B090BDB0B58AB000AF7860396034
S315200002E07B68DB68DAB224217B181A707B681B696D
S315200002F0DAB27B185A707B68DB68DAB27B681B68D7
S315200003005B68DBB2D318DAB220203B181A707B6800
S315200003101B69DAB27B681B689B68DBB2D318DAB23A
S315200003203B185A707B68DB68DAB21C243B191A70BA
S315200003307B681B69DAB27B681B689B68DBB2D318C3
S31520000340DAB23B195A707B68DB68DAB27B681B68C5
S315200003505B68DBB2D318DAB218243B191A707B68B3
S315200003601B69DAB23B195A703B68DB68DAB214248F
S315200003703B191A703B681B69DAB23B195A703B6805
S31520000380DB68DAB23B681B685B68DBB2D318DAB28B
S3152000039010257B191A703B681B69DAB27B195A70D3
S315200003A03B68DB68DAB20C257B191A703B681B693F
S315200003B0DAB23B681B689B68DBB2D318DAB27B19CA
S315200003C05A703B68DB68DAB23B681B685B68DBB255
S315200003D0D318DAB208257B191A703B681B69DAB282
S315200003E03B681B689B68DBB2D318DAB27B195A705C
S315200003F03A1879183B19126809681868FFF740FF00
S31520000400031E01D001233CE02023FA182423F918E7
S315200004101023FB18126809681868FFF731FF031EBE
S3152000042001D001232DE02023FA182423F9180C23C8
S31520000430FB18126809681868FFF722FF031E01D00F
S3152000044001231EE02023FA182423F9180823FB1879
S31520000450126809681868FFF713FF031E01D00123ED
S315200004600FE02023FA182423F9180823FB18126812
S3152000047009681868FFF704FF031E01D0012300E076
S3152000048000231800BD460AB0B0BDC04680B500AFF7
S315200004900F4B00221A600E4A53681B0E1B06292199
S315200004A00B4353600A4A93681B0E1B069360084B46
S315200004B005221A60C046064B1A6880235B02134049
S315200004C0F9D0034B00221A60C046BD4680BDC04607
S315200004D010E000E080B584B000AF78600DE03223F4
S315200004E0FB6004E0FFF7D2FFFB68013BFB60FB6883
S315200004F0002BF7DC7B68013B7B607B68002BEED111
S31520000500C046C046BD4604B080BD80B582B000AFAF
S3152000051078600AE0FFF7BAFFFFF7B8FFFFF7B6FFEC
S31520000520FFF7B4FF7B68013B7B607B68002BF1D132
S31520000530C046C046BD4602B080BD80B500AF0C4B5C
S315200005401A680B4B06218A431A60094A53681B0E08
S315200005501B0608490B435360054A93681B0E1B066E
S315200005609360034B07221A60C046BD4680BDC04635
S3152000057010E000E09F410000F0B58DB000AF020012
S31520000580FB1D1A70BB1D0A1C1A7020203B18274A17
S3152000059032CA32C314257B19254A52CA52C30824AB
S315200005A03B19244A42CA42C31188198092789A700C
S315200005B0FB1D1B7821007A18D25C04003B189A7226
S315200005C0BB1D1B787A18D25C7B199A7201210120F7
S315200005D000F071F9FB6A1B78002B22D03B19FB62D5
S315200005E006E0FB6A5A1CFA621B78180000F045F9EF
S315200005F0FB6A1B78002BF4D10221012000F05BF965
S315200006001423FB18FB6206E0FB6A5A1CFA621B786D
S31520000610180000F032F9FB6A1B78002BF4D1002376
S31520000620FFE71800BD460DB0F0BDC0468C12002075
S3152000063098120020A412002080B500AF0120FFF7F9
S3152000064049FF382000F017F80120FFF743FF0E205E
S3152000065000F011F80120FFF73DFF00F0F7F8022027
S31520000660FFF738FF062000F006F80220FFF732FFDA
S31520000670C046BD4680BD80B582B000AF0200FB1DDE
S315200006801A70012000F0BEF8022000F0BBF8FB1D16
S315200006901B78180000F03CF8C046BD4602B080BD6D
S315200006A080B582B000AF0200FB1D1A70012000F059
S315200006B08DF8022000F0A6F8FB1D1B78180000F02C
S315200006C027F8C046BD4602B080BD80B582B000AFD7
S315200006D00C4B0D4A1A60402000F078F8FFF7D6FE42
S315200006E0FFF7D4FE074AFB1D527C1A70402000F00B
S315200006F089F8044B054A1A60FB1D1B781800BD4675
S3152000070002B080BD00100240555500005555555584
S3152000071080B582B000AF0200FB1D1A700120FFF7E2
S31520000720D9FE402000F052F8074AFB1D1B7853756E
S31520000730FFF7ACFE402000F065F8FFF7A7FEC046A5
S31520000740BD4602B080BDC0460010024090B583B0C1
S3152000075000AF0B4B0B4A1A60022000F037F801203D
S3152000076000F050F8FC1DFFF7B0FF03002370044B88
S31520000770054A1A60FB1D1B781800BD4603B090BDC4
S3152000078000100240555500005555555590B583B07B
S3152000079000AF0B4B0B4A1A60022000F017F801201D
S315200007A000F014F8FC1DFFF790FF03002370044BA4
S315200007B0054A1A60FB1D1B781800BD4603B090BD84
S315200007C000100240555500005555555580B584B04A
S315200007D000AF0200FB1D1A70094A0F217B18127DFB
S315200007E01A70FA1D7B1812781B781343DBB2044A61
S315200007F004210B43DBB21375C046BD4604B080BD51
S315200008000010024080B584B000AF0200FB1D1A70B4
S315200008100D4A0F217B18127D1A70FB1D1B785BB2C7
S31520000820DB435BB27A18127852B213405AB27B1865
S315200008301A70054A7B181B7804210B43DBB213750B
S31520000840C046BD4604B080BD0010024080B500AF52
S31520000850C046FFF77BFF03001A0080231340802B3E
S31520000860F7D00820FFF751FE0120FFF704FF0220F2
S31520000870FFF730FEC046BD4680BD80B582B000AFD2
S315200008800200FB1D1A70C046FFF760FF03001A0026
S3152000089080231340802BF7D00820FFF736FEFB1D60
S315200008A01B781800FFF7FCFE2B20FFF72EFEC04614
S315200008B0BD4602B080BD80B584B000AF7860396097
S315200008C07B68013BFB603B68022B02D1FB6840330F
S315200008D0FB60FB685BB28022524213435BB2DBB201
S315200008E01800FFF7C8FEC046BD4604B080BDC0460E
S315200008F080B584B000AF0200FB1D1A70FB1D1B786B
S31520000900002B05D0174A0F23FB18527C1A7004E0DF
S31520000910144A0F23FB18127C1A700F23FB181B781E
S315200009200822134001D0042318E00F23FB181B785C
S315200009300422134001D0032310E00F23FB181B7859
S315200009400222134001D0022308E00F23FB181B7854
S315200009500122134001D0012300E000231800BD46E8
S3152000096004B080BD000C024080B582B000AF786034
S315200009700A00FB1C1A70FB1C1B78002B26D07B68F8
S31520000980042B1BD07B68042B1CD87B68032B11D02F
S315200009907B68032B16D87B68012B03D07B68022B40
S315200009A004D00FE01F4B10225A7536E01D4B202233
S315200009B05A7532E01B4B40225A752EE0194B802285
S315200009C05A752AE0174B00225A7526E07B68042BBD
S315200009D01BD07B68042B1CD87B68032B11D07B682B
S315200009E0032B16D87B68012B03D07B68022B04D0FF
S315200009F00FE00C4B10221A750FE00A4B20221A75B5
S31520000A000BE0084B40221A7507E0064B80221A7528
S31520000A1003E0044B00221A75C046C046BD4602B00C
S31520000A2080BDC046000C024090B589B000AF0200E0
S31520000A30FB1D1A700823FB181A4A13CA13C312681F
S31520000A401A600123FB611EE0FA69FB1D1B78190061
S31520000A501000FFF789FFFB1D1B781800FFF748FFE2
S31520000A600300BB61BB69002B0AD0FB69DBB29B008C
S31520000A70DAB2BB69DBB2D318DBB2023BDBB20CE0E5
S31520000A80FB690133FB61FB69042BDDDDFB1D1B7854
S31520000A9019000020FFF768FFFF231800BD4609B0A4
S31520000AA090BDC046B0120020F0DF7047C046F2DF8E
S31520000AB07047C046F1DF7047C046F3DF7047C04637
S31520000AC080B582B000AF78607A680A4B9A4206D128
S31520000AD0094B01221A70094B00221A7005E0064BB9
S31520000AE000221A70054B01221A70C046BD4602B07C
S31520000AF080BDC046C0120020080E0020090E00202E
S31520000B0090B585B000AF0200FB1D1A700F23FC18AC
S31520000B10FB1D1B781800FFF787FF03002370C046D4
S31520000B201800BD4605B090BD80B500AF084B1B68C8
S31520000B30DA69074B1B6818009047064B1B68DA6971
S31520000B40044B1B6818009047C046BD4680BDC04672
S31520000B507C1200208012002080B500AF304B1A682E
S31520000B60304B1B6819001000FFF7B5FB031E0CD095
S31520000B702C4B1B685A682B4B1B6852425A60294BD8
S31520000B801A68284B1B6892689A60274B1A68254B6F
S31520000B901B6819001000FFF79EFB031E0CD0214B8B
S31520000BA01B685A681F4B1B6852425A601D4B1A68B5
S31520000BB01C4B1B6892689A601A4B1B68DA69194BA2
S31520000BC01B6818009047194B1B78002B24D0FFF781
S31520000BD071FF174B1A78174B1B7819001000FFF777
S31520000BE0CBFC0F4B1B687A22DA600D4B1B68202248
S31520000BF01A610D4B1B680222DA600B4B1B68202200
S31520000C001A61084B1B684022DA60064B1B682022BB
S31520000C101A61064B00221A70C046BD4680BDC046EA
S31520000C207C1200208412002080120020100E00204A
S31520000C300A0E00200B0E002080B500AF0D4B0022BF
S31520000C401A600C4A93681B0E1B069360094B1A68A0
S31520000C50084B05210A431A60FFF77EFFFFF764FF62
S31520000C60054B1B681800FFF7D3F9FFF766FCC04653
S31520000C70BD4680BD10E000E08812002080B582B01D
S31520000C8000AF02003960FB1D1A70FB1D1B78FF2B7D
S31520000C9017D026DC0C2B0DD023DC042B02D0062B00
S31520000CA016D01EE03B681B6A032252423868002198
S31520000CB0984716E03B681B6A38680322002198474C
S31520000CC00FE03B681B6A386800220021984708E03D
S31520000CD0064B1B680A22DA60044B1B6820221A6125
S31520000CE0C046C046BD4602B080BDC0468412002024
S31520000CF080B500AF0A4B0B4A1A60094B0A4ADA60E4
S31520000D00074B0A4A9A60064B00229A80084B074AEC
S31520000D101A60084B1800FFF7D3FEC046BD4680BDBB
S31520000D20000C024000550055AA00AA0055555555FD
S31520000D3000100240C012002080B500AFFFF7D8FF98
S31520000D40044B054A1A60054B054A1A60C046BD4643
S31520000D5080BDC04608ED00E000C001203CC0012057
S31520000D60390C002090B583B000AFFFF79DFEFFF74A
S31520000D70A1FEFFF7E1FFFFF75FFC01210120FFF74E
S31520000D809AFD164B1A78164B1B7819001000FFF7A0
S31520000D90F3FBFFF7D2FB134B1B78DBB2FC1D1800CD
S31520000DA0FFF7AEFE030023700F4B1B78DBB2BC1D92
S31520000DB01800FFF7A5FE030023700C4B1A68FB1DD5
S31520000DC01B7811001800FFF759FF094B1A68BB1D45
S31520000DD01B7811001800FFF751FFDCE70A0E0020F0
S31520000DE00B0E0020080E0020090E00207C12002089
S31520000DF080120020002310B59A4200D110BDCC5C91
S31520000E00C4540133F8E70000000000000000000091
S31520000E10000000001D000000040000000400000087
S31520000E200000010002000300040000080108020877
S31520000E30030804080203020402050001000200035D
S31520000E40000400050006000700080400040104024F
S31520000E50040304040405040604070000000000003F
S31520000E60000000000000000000000000000000005C
S31520000E70000000000000000000000000000000004C
S31520000E80000000000000000000000000000000003C
S31520000E90000000000000000000000000000000002C
S31520000EA00C000000050000000900000000010002FF
S31520000EB001000101010201030200020102020203F4
S31520000EC003010302000000000000000000000000F3
S31520000ED000000000000000000000000000000000EC
S31520000EE000000000000000000000000000000000DC
S31520000EF000000000000000000000000000000000CC
S31520000F0000000000000000000000000000000000BB
S31520000F1000000000000000000000000000000000AB
S31520000F20000000000000000000000000400000005B
S31520000F3000000000400000003E013E023E033E0449
S31520000F403E053E063E073E083E093E0A3E0B3E0C47
S31520000F503E0D3E0E3E0F3E103E113E123E133E14F7
S31520000F603E153E163E173E183E193E1A3E1B3E1CA7
S31520000F703E1D3E1E3E1F3E203E213E223E233E2457
S31520000F803E253E263E273E283E293E2A3E2B3E2C07
S31520000F903E2D3E2E3E2F3E303E313E323E333E34B7
S31520000FA03E353E363E373E383E393E3A3E3B3E3C67
S31520000FB03E3D3E3E3E3F3E402C0F002000000000BE
S31520000FC000000000000000000000000011000020CA
S31520000FD0AD0000202F010020A7010020140E0020C4
S31520000FE000000000000000007A0000002000000041
S31520000FF011000020AD0000202F010020A7010020B5
S31520001000140E002000000000000000000200000076
S315200010102000000011000020AD0000202F0100203C
S31520001020A7010020A00E00200400000001000000FF
S31520001030400000002000000011000020AD0000202C
S31520001040CB010020A70100201D00000004000000A5
S315200010500400000000000100020003000400000854
S31520001060010802080308040802030204020500011D
S315200010700002000300040005000600070008040023
S315200010800401040204030404040504060407000002
S31520001090000000000000000000000000000000002A
S315200010A0000000000000000000000000000000001A
S315200010B0000000000000000000000000000000000A
S315200010C000000000000000000000000000000000FA
S315200010D0000000000C0000000500000009000000D0
S315200010E000010002010001010102010302000201C8
S315200010F002020203030103020000000000000000B8
S3152000110000000000000000000000000000000000B9
S3152000111000000000000000000000000000000000A9
S315200011200000000000000000000000000000000099
S315200011300000000000000000000000000000000089
S315200011400000000000000000000000000000000079
S315200011500000000000000000000000000000000069
S315200011604000000000000000400000003E013E025A
S315200011703E033E043E053E063E073E083E093E0A25
S315200011803E0B3E0C3E0D3E0E3E0F3E103E113E12D5
S315200011903E133E143E153E163E173E183E193E1A85
S315200011A03E1B3E1C3E1D3E1E3E1F3E203E213E2235
S315200011B03E233E243E253E263E273E283E293E2AE5
S315200011C03E2B3E2C3E2D3E2E3E2F3E303E313E3295
S315200011D03E333E343E353E363E373E383E393E3A45
S315200011E03E3B3E3C3E3D3E3E3E3F3E406011002063
S315200011F000000000000000000000000000000000C9
S3152000120011000020AD0000202F010020A7010020A2
S315200012104810002000000000000000007A000000B6
S315200012202000000011000020AD0000202F0100202A
S31520001230A701002048100020000000000000000048
S31520001240020000002000000011000020AD00002058
S315200012502F010020A7010020D41000200400000048
S3152000126001000000400000002000000011000020C6
S31520001270AD000020CB010020A70100201012002085
S315200012803412002058120020EC110020504C4159F5
S31520001290455220313A205800504C4159455220326F
S315200012A03A20580030313233343536373839000059
S315200012B00102030A0405060B070809390E00F60D7C
S30D200012C04849474800000000E0
S70520000000DA
